:10000000000800202D0D0000990D00006D0B000070
:1000100000000000000000000000000000000000E0
:10002000000000000000000000000000990D00002A
:100030000000000000000000990D0000990D000074
:10004000990D0000990D0000990D0000990D000018
:10005000990D0000990D0000990D0000990D000008
:10006000990D0000990D0000990D0000990D0000F8
:10007000990D0000990D0000990D0000990D0000E8
:10008000990D0000990D0000990D0000990D0000D8
:10009000990D0000990D0000990D0000990D0000C8
:1000A000990D0000990D0000990D0000990D0000B8
:1000B000990D0000990D0000990D0000990D0000A8
:1000C00010B5064C2378002B07D1054B002B02D02E
:1000D000044800E000BF0123237010BD7C00002015
:1000E00000000000B01C0000044B10B5002B03D032
:1000F0000349044800E000BF10BDC04600000000F6
:1001000080000020B01C0000402292029A1A924601
:100110007047C046174B002B00D1134B9D46FFF78D
:10012000F3FF00218B460F461348144A121A00F0C1
:10013000DBFF0E4B002B00D098470D4B002B00D05F
:1001400098470020002104000D000D48002802D02F
:100150000C4800E000BF00F0A3FF2000290000F0E1
:10016000FBF900F087FFC046000008000000000017
:1001700000000000000800207C000020B4000020E7
:10018000000000000000000080B584B000AF78607F
:10019000164B1B685B00FB60154B1A68154B7968A2
:1001A0004A435A60134B00229A60124B05221A6090
:1001B00005E0FB68013BFB60FB68002B06D00D4BA4
:1001C0001A6880235B021340F3D000E0C046094B5D
:1001D00000221A60FB68002B02D101235B4200E081
:1001E00000231800BD4604B080BDC04604000020B6
:1001F0000800002010E000E080B500AF194B1800A7
:10020000FFF7C2FF302000F0C7F8174B1800FFF7C8
:10021000BBFF302000F0C0F89620FFF7B5FF30207C
:1002200000F0BAF89620FFF7AFFF202000F0B4F8F6
:100230009620FFF7A9FF282000F071F8082000F0B1
:100240006EF8012000F06BF8FA23DB001800FFF7CE
:100250009BFF062000F063F80C2000F060F8C04619
:10026000BD4680BD50C300009411000080B500AFB2
:10027000012000F054F8FA23DB001800FFF784FF98
:10028000C046BD4680BD000080B584B000AF02000E
:10029000FB1D1A70BB1D0A1C1A700C217B180B4A1F
:1002A0001A60FB1D1B787A18D25CBB1D1B78D31813
:1002B000DBB25BB28022524213435BB2DBB2180066
:1002C00000F02DF8C046BD4604B080BD0040145477
:1002D00080B582B000AF786007E07B685A1C7A6016
:1002E0001B785BB2180000F00AF87B681B785BB2E1
:1002F000002BF2D1C046C046BD4602B080BD80B5DD
:1003000082B000AF0200FB1D1A70FB1D1B7801219B
:10031000180000F014F8C046BD4602B080BD80B59C
:1003200082B000AF0200FB1D1A70FB1D1B7800217C
:10033000180000F004F8C046BD4602B080BD90B57C
:1003400085B000AF0200FB1D1A70BB1D0A1C1A709D
:100350000F203B18FA1D12780F218A431A70FB1DDB
:100360001B781A010E243B191A703A18BB1D12781B
:100370001B781343DBB2180000F00EF83A19BB1DCE
:1003800012781B781343DBB2180000F005F8C04662
:10039000BD4605B090BD000080B582B000AF020040
:1003A000FB1D1A70FB1D1B7808221343DBB2144897
:1003B0001A00272100F01EFBFB1D1B780C221343A3
:1003C000DBB20F481A00272100F014FB0120FFF7D1
:1003D000DBFEFB1D1B785BB20C2293435BB2082251
:1003E00013435BB2DBB206481A00272100F002FB80
:1003F0003220FFF7C9FEC046BD4602B080BDC046F0
:100400000000084080B500AF0F2000F049FA1B2023
:1004100000F082FA0021072000F096F9124B00222A
:100420005A63124B180000F04BFA022000F048FA11
:10043000AC23DB05180000F043FA0D4B180000F068
:100440003FFAAC23DB0500220321180000F0B8F9C5
:10045000074B00220821180000F0B2F900F018FD47
:10046000C046BD4680BDC0460002004008000040B6
:100470000000205680B500AF8023DA0580235B00A2
:100480005921D1508023DA0580235B001621D150F9
:100490008023DA0580235B008821D1508023DA0590
:1004A00080235B00D358002BE6D0C046C046BD4633
:1004B00080BD80B500AF8023DA0580235B0000217A
:1004C000D150C046BD4680BD80B584B000AF7860D5
:1004D000164B1B685B00FB60154B1A68154B79685F
:1004E0004A435A60134B00229A60124B05221A604D
:1004F00005E0FB68013BFB60FB68002B06D00D4B61
:100500001A6880235B021340F3D000E0C046094B19
:1005100000221A60FB68002B02D101235B4200E03D
:1005200000231800BD4604B080BDC0460400002072
:100530000800002010E000E080B500AFFFF79AFF50
:10054000FFF760FF00F0A2F800F095F8FFF7B1FFA9
:10055000C046BD4680BD000080B582B000AFFFF749
:10056000EBFF2D4B180000F039FEFFF745FE002190
:100570000020FFF789FE294B1800FFF7A9FE06218E
:100580000120FFF781FE264B1800FFF7A1FE254B47
:100590001800FFF799FF234B1800FFF795FF214B39
:1005A0001800FFF791FF1F4B1800FFF78DFF1D4B41
:1005B0001800FFF789FFFFF759FEFB1D21221A7073
:1005C000BB1D00221A70BB1D1B7800211800FFF70D
:1005D0005BFEFB1D00229A56D3B20133D9B2FB1D3C
:1005E00019701000FFF78BFE0F4B1800FFF76CFF20
:1005F000FB1D1B780F221340DBB2002BE9D1BB1D82
:10060000BA1D127801214A401A70BB1D1B780021C7
:100610001800FFF739FEDCE7C41B0000F01B0000E8
:10062000F81B0000404B4C00C0C62D0080B500AF49
:10063000C046BD4680BD000080B500AF044A054BF2
:100640001100180000F098F9C046BD4680BDC046B4
:10065000A08601000000084080B500AF00F01AFB42
:100660008023DB059A698023DB0580218A439A6118
:10067000C046BD4680BD80B500AFFFF7D7FFFFF78E
:10068000EBFFFFF7D9FFC046BD4680BD80B500AF88
:100690008023DB0500225A638023DB0500221A63D6
:1006A0008023DB050022DA638023DB05CC22D20322
:1006B0009A638023DB0500225A648023DB05002235
:1006C0001A648023DB050022DA648023DB05002224
:1006D0009A648023DB050022DA658023DB05EE22A5
:1006E0009A65C046BD4680BD80B582B000AF00F0BF
:1006F000CFFB074B5B6B072213407B60054B1A68EF
:100700007B68DA4013001800BD4602B080BDC046C9
:10071000000200400400002080B582B000AF00F06D
:10072000B7FB074B5B6B1B09072213407B60054B34
:100730001A687B68DA4013001800BD4602B080BD1D
:10074000000200400400002080B584B000AF786053
:1007500039601A4B1B6D10221340FB60174B1A684F
:10076000164B04210A431A60102000F0D5F8134BF1
:100770001A69124B07210A431A61104B1B6A0F2298
:10078000934319000D4B3A680A431A620B4B1B69DD
:10079000072293431900094B7A680A431A6100F053
:1007A00077FBFB68002B05D1044B1A68034B04212F
:1007B0008A431A60C046BD4604B080BD00020040B6
:1007C00090B58FB000AFF860B9607A6000237B63AA
:1007D00000233B632023FB182E4A13CA13C312685D
:1007E0001A6010217B1800221A607B1800225A60C0
:1007F0007B1800229A607B181022DA60FB689B0A43
:10080000FF2213401DD0FB689B0C03221A407B186B
:100810009200D358204A944663443B633B6B1B6869
:10082000FA68920AFF211140FA6852091F2002401B
:1008300091400A00D2431A4011003B6B7A680A4388
:100840001A60FB685B0E072213401ED0FB681B0F6B
:1008500003221A402023FB189200D3580F4A9446D3
:1008600063447B637B6B1B68FA68520E072111405F
:10087000FA68120D1F20024091400A00D2431A402C
:1008800011007B6BBA680A431A60C046BD460FB0C0
:1008900090BDC046001C0000200200401002004035
:1008A00080B582B000AF7860044B1968034B7A685A
:1008B0000A431A60C046BD4602B080BD0002004037
:1008C000B0B586B000AF78600C243B19104A23CA3B
:1008D00023C37B689A0F3B199200D3580D4A944664
:1008E00063441A687B681F210B40012199400B006B
:1008F00018007B68990F3B198900CB5805498C4635
:10090000634402431A60C046BD4606B0B0BDC0464F
:10091000101C00000402004080B584B000AF786075
:10092000124B1B685B08FB600123BB60104B00226D
:100930001A6008E0FB68013BFB60FB68002B02D1FA
:100940000023BB6006E00B4B1B6D7A6813407A688E
:100950009A42EFD1FB68002B03D1054B0122524292
:100960001A60BB681800BD4604B080BD04000020BA
:10097000980000200002004080B584B000AF78608D
:1009800039607B681A4A934204D1FFF7C5FE030021
:10099000FB6003E0FFF7A8FE0300FB60FA681300AA
:1009A0009B009B185B001A003B689B00190010001D
:1009B00000F0CEFA030005330A21180000F0C8FA4F
:1009C0000300013BBB607B68BA681A617B681B68E7
:1009D00040221A437B681A60BB6801339B001900F0
:1009E000F86800F0B5FA03001800BD4604B080BDF9
:1009F0000010084080B584B000AF78600800110096
:100A0000FB1C021C1A70BB1C0A1C1A700F23FB185B
:100A100001221A700E23FB1800221A700D23FB18F6
:100A200000221A704B4B00221A607B681B68282238
:100A30001A437B681A6062E0474B1B68BB600AE0A0
:100A4000BB68013BBB60BB68002B04D1414B01225A
:100A500052421A6004E07B681B6808221340EFD002
:100A60007B68DB68302B1CD02DD8282B22D02AD8CD
:100A7000202B16D027D8082B02D0182B0CD022E020
:100A8000FB1C1B78DB18DBB21A007B689A600D2315
:100A9000FB1808221A7027E0BB1C1A787B689A6042
:100AA00022E00D23FB1818221A700E23FB180122D6
:100AB0001A7019E00D23FB1818221A700F23FB1867
:100AC00000221A7010E07B681B683C2293431822B6
:100AD0001A437B681A600D23FB1808221A700E2334
:100AE000FB1801221A70C0467B681B683C229343A6
:100AF0001A000D23FB181B781A437B681A600F231A
:100B0000FB181B78002B04D00E23FB181B78002B3E
:100B100092D0114B1B68BB600AE0BB68013BBB6015
:100B2000BB68002B04D10B4B012252421A6004E037
:100B30007B681B6810221340EFD10E23FA180F2395
:100B4000FB1812781B781343DBB21800BD4604B0C3
:100B500080BDC0469C0000200400002080B582B00B
:100B600000AF7860C046BD4602B080BD80B500AF22
:100B70007046EFF30881EFF30982034B9847004773
:100B8000C046BD4680BD00008D0B000080B586B01C
:100B900000AFF860B9607A60FB680422134002D0AD
:100BA0007B687B6101E0BB687B617B6918331B68F4
:100BB0001B889BB23B613B690D4A93420BD10D4BA5
:100BC00000221A607B6918331A687B691833023275
:100BD0001A60FB6808E0084B180000F0FFFA7B6918
:100BE0001800FFF7BBFFFEE71800BD4606B080BD4A
:100BF000ABBE0000000000201C1C000080B586B0C9
:100C000000AFF860B9607A607B687B611CE0C04629
:100C1000124B9A6980231B041340F9D1BB681B78DF
:100C20005BB20A2B09D10D4B0D221A60C0460B4B4B
:100C30009A6980231B041340F9D1BB685A1CBA601F
:100C400000229A56054B1A607B695A1E7A61002B66
:100C5000DDD17B681800BD4606B080BD00000740AE
:100C600080B584B000AFF860B9607A60C046084BC8
:100C70009A698023DB011340F9D1054B1B685AB2F6
:100C8000BB681A7001231800BD4604B080BDC04681
:100C90000000074080B500AF8023DB059A69802300
:100CA000DB0501218A439A61C046BD4680BD80B5FF
:100CB00082B000AF786000F0D7F9030058221A60C4
:100CC00001235B421800BD4602B080BD80B582B0F2
:100CD00000AF7860396000F0C7F9030058221A604D
:100CE00001235B421800BD4602B080BD80B582B0D2
:100CF00000AF786000F0B8F9030058221A600023B2
:100D00001800BD4602B080BD80B584B000AFF86069
:100D1000B9607A6000F0A8F9030058221A60012334
:100D20005B421800BD4604B080BD00000E490F4A6A
:100D30000F4B9B1A03DD043BC858D050FBDC0D4819
:100D40000D4901600D4901600D4901600D480E49D2
:100D500001600E480E49016006480E49016000F02E
:100D6000DDF8FFF7D7F90000BC1C000000000020F0
:100D70007C00002000010040590000001600000027
:100D80008800000024000040A55A000080020040B6
:100D90000100000000000000FEE7C04680B500AF83
:100DA0008023DA0580235B005921D1508023DA05A6
:100DB00080235B001621D1508023DA0580235B005D
:100DC0008821D1508023DA0580235B00D358002B83
:100DD000E6D0C046C046BD4680BD80B500AF80238A
:100DE000DA0580235B000021D150C046BD4680BD9E
:100DF00080B588B000AF3B1D214A1A600023FB611B
:100E0000204B1B6C7B617A69A023DB02134031D13C
:100E10007A6980231B03134002D01B4BBB6101E0A6
:100E20001A4BBB617A6980239B02134002D0BB69D5
:100E3000FB611FE07B699B0B032213403A1DD35CCF
:100E40003B617B69DB05DB0D0233FB607B695B0A81
:100E50001F2213400233BB60BB699B08FA685A43E8
:100E60001000BB683A695343190000F071F80300A1
:100E70009B00FB61FB691800BD4608B080BDC04601
:100E80000102020400020040001BB7000048E80114
:100E900080B584B000AF1A4B1B6907221340BB60BA
:100EA000FFF7A6FF0200174B1A60BB68022B05D0A4
:100EB000154BBA689200D358FB6002E0114B1B68D7
:100EC000FB600F4B1B6A0F22134001337B60796874
:100ED000F86800F03DF803001A000C4B1A600B4B49
:100EE0001B680B4A944663440A49180000F030F826
:100EF00003001A00084B1A60C046BD4604B080BD0E
:100F0000000200400C0000202C1C00000400002007
:100F100020A1070040420F000800002080B500AF6C
:100F2000FFF73CFF084B1A68074B08490A401A6054
:100F3000054B1A68044BE021C9030A431A60FFF706
:100F40004CFFC046BD4680BD00020040FFFF8FFF42
:100F5000002243088B4274D303098B425FD3030AF8
:100F60008B4244D3030B8B4228D3030C8B420DD30B
:100F7000FF22090212BA030C8B4202D31212090299
:100F800065D0030B8B4219D300E0090AC30B8B42D7
:100F900001D3CB03C01A5241830B8B4201D38B0385
:100FA000C01A5241430B8B4201D34B03C01A52412A
:100FB000030B8B4201D30B03C01A5241C30A8B426D
:100FC00001D3CB02C01A5241830A8B4201D38B0258
:100FD000C01A5241430A8B4201D34B02C01A5241FC
:100FE000030A8B4201D30B02C01A5241CDD2C3096E
:100FF0008B4201D3CB01C01A524183098B4201D3EA
:101000008B01C01A524143098B4201D34B01C01AD4
:10101000524103098B4201D30B01C01A5241C3084C
:101020008B4201D3CB00C01A524183088B4201D3BB
:101030008B00C01A524143088B4201D34B00C01AA7
:101040005241411A00D20146524110467047FFE713
:1010500001B5002000F006F802BDC0460029F7D017
:1010600076E770477047C046014B18687047C04626
:1010700010000020084B10B50400002B02D0002106
:1010800000E000BF054B1868836A002B00D098472A
:10109000200000F089FDC046000000004C1C00004C
:1010A00070B500260C4D0D4C641BA410A64209D14E
:1010B000002600F07BFD0A4D0A4C641BA410A642DA
:1010C00005D170BDB300EB5898470136EEE7B30089
:1010D000EB5898470136F2E77400002074000020B6
:1010E000740000207800002003008218934200D191
:1010F000704719700133F9E770B505000E0000283C
:1011000004D08369002B01D100F06EFAAB69AC68A2
:10111000002B02D1280000F067FA2D4B9C4222D10F
:101120006C68636EDB0705D4A3899B0502D4A06DB0
:1011300000F0FBFAA3891B0702D52369002B29D1F4
:101140002100280000F0AAF8002823D001256D42D4
:10115000636EDB0705D4A3899B0502D4A06D00F064
:10116000E5FA280070BD1B4B9C4201D1AC68D8E762
:10117000194B9C42D5D1EC68D3E70136A360002B14
:1011800004DAA2699A4216DC0A2914D023685A1C90
:1011900022601970A3683178013B0029EDD1A3606A
:1011A000002B0FDA280022000A3100F021F80A256E
:1011B000431CCDD1CAE72200280000F019F8431CD7
:1011C000E8D1C3E70A2523685A1C22601D70BFE7D7
:1011D000701C0000901C0000501C000010B5034B58
:1011E00001001868FFF788FF10BDC04610000020FE
:1011F000F8B505000E001400002804D08369002B08
:1012000001D100F0F1F9224B9C422ED16C68A36908
:10121000A360A3891B0732D52369002B2FD0236835
:101220002269F7B2981A6369F6B2834205DC21009D
:10123000280000F037F9002827D1A3680130013BCE
:10124000A36023685A1C22601F706369834204D024
:10125000A389DB0707D50A2E05D12100280000F05D
:1012600021F9002811D13000F8BD0A4B9C4201D170
:10127000AC68CCE7084B9C42C9D1EC68C7E72100B9
:10128000280000F00BF80028C9D001267642EAE7D2
:10129000701C0000901C0000501C0000374B70B503
:1012A0001D6806000C00002D05D0AB69002B02D193
:1012B000280000F099F9324B9C420FD16C680C2346
:1012C000E25E93B211072DD4D90611D4092301206F
:1012D000336037331343A381404270BD294B9C4296
:1012E00001D1AC68EBE7284B9C42E8D1EC68E6E71B
:1012F0005B0713D5616B002908D023004433994262
:1013000002D0300000F080FA002363632422A38916
:101310009343A38100236360236923600823A28988
:101320001343A3812369002B0BD1A0218022A38921
:10133000890092000B40934203D02100300000F05E
:101340001FFA0C22A35E01201A0099B20240034248
:101350000FD00022A26062695242A261002022697D
:101360008242BAD10A06B8D540221343A38101387C
:10137000B3E7880700D46269A260EFE7100000209D
:10138000701C0000901C0000501C0000F7B58B89F9
:1013900005000C001A075FD44A68002A04DC0A6CB6
:1013A000002A01DC0020FEBDE76A002FFAD00022EF
:1013B00080212E682A601A0049010A400B4234D06D
:1013C000606DA3895B0706D56368C01A636B002B49
:1013D00001D0236CC01A0200216A00232800E76AAA
:1013E000B847A189431C06D12B681D2B31D82C4A44
:1013F000DA40D3072DD50023636023692360CB0433
:1014000005D5431C02D12B68002B00D16065616BB0
:101410002E600029C6D023004433994202D0280010
:1014200000F0F2F900206063BDE701232800216A83
:10143000B847431CC5D12B68002BC2D01D2B01D04F
:10144000162B01D12E60ADE74023A2891343A3815F
:10145000A9E740230B43FAE70F69002FA2D00A68DF
:101460000F60D21B019200229B0700D14A69A26043
:10147000019B002B00DC95E73A002800019B216AC4
:10148000A66AB047002806DC40230120A28940421A
:101490001343A38187E7019B3F181B1A0193E7E7DA
:1014A000010040200B6970B505000C00002B02D133
:1014B0000025280070BD002804D08369002B01D1CD
:1014C00000F092F8144B9C421BD16C680C22A35E76
:1014D000002BEDD0626ED20704D49B0502D4A06D20
:1014E00000F023F928002100FFF750FF636E05008C
:1014F000DB07DED4A3899B05DBD4A06D00F016F9D1
:10150000D7E7064B9C4201D1AC68DFE7044B9C4215
:10151000DCD1EC68DAE7C046701C0000901C0000CB
:10152000501C0000002310B504000360436083607A
:10153000818143661900C28103614361836108228E
:101540005C30FFF7D1FD054B24626362044BA3625C
:10155000044BE362044B236310BDC046F119000045
:10156000191A0000511A00007D1A000010B5024936
:1015700000F0BAF810BDC046A514000070B568258B
:101580004A1E55430E002900743100F0A9F9041ECB
:1015900008D000212A00016046600C30A06068324B
:1015A000FFF7A2FD200070BD10B5024800F0BDF8A5
:1015B00010BDC046A500002010B5024800F0B6F8E6
:1015C00010BDC046A500002010B5024800F0ADF8DF
:1015D00010BDC046A600002010B5024800F0A6F8D5
:1015E00010BDC046A600002013B50400FFF7ECFFB5
:1015F000A369002B02D0FFF7EFFF13BDA364E364E0
:101600002365134B134A1B68A2620193A34201D1C5
:101610000123A361200000F01FF86060200000F0AB
:101620001BF8A060200000F017F800220421E06001
:101630006068FFF777FF01220921A068FFF772FFBA
:1016400002221221E068FFF76DFF0123A361D2E7B8
:101650004C1C00006D150000F8B50700FFF7A4FF53
:101660001F4B1E68B369002B02D13000FFF7BCFF8F
:101670004836B4687368013B04D53368002B22D028
:101680003668F6E70C22A55E002D1AD12000154B16
:101690005830E360656600F047F8FFF78DFF2000E3
:1016A000082229002560A560656025616561A56146
:1016B0005C30FFF719FD6563A563A564E564200050
:1016C000F8BD6834D7E704213800FFF757FF041E40
:1016D0003060D5D1FFF770FF0C233B60EFE7C046C9
:1016E0004C1C00000100FFFFF7B5040006000027B6
:1016F000019148346368A5680093009B013B009307
:1017000004D52468002CF5D13800FEBDAB89012B2F
:1017100008D90E22AB5E013304D029003000019BB2
:10172000984707436835E8E77047704770470000FF
:1017300070B50E001D000E23C95E140096B000297E
:1017400008DA0C22B35E00222A601B0611D4802323
:10175000DB000FE06A4600F0BDF90028F1DBF02362
:1017600001991B021940054BC9184B425941296088
:10177000EDE740230020236016B070BD00E0FFFFBE
:10178000F7B502268B8905000C00334206D02300F2
:1017900047332360236101236361F7BD6A4601ABD0
:1017A000FFF7C6FF00990700280000F099F800280D
:1017B00008D10C22A35E9A05EFD4032293431E4363
:1017C000A681E4E70F4BAB628023A289206013431C
:1017D000A381009B20616361019B002B0DD0280039
:1017E0000E23E15E00F088F9002806D00322A389C9
:1017F00093431A0001231343A381A0890743A781C0
:10180000CBE7C0466D15000070B50500002910D06B
:101810000C1F2368002B00DAE418280000F092F96E
:101820001D4A1368002B05D163601460280000F086
:1018300091F970BDA34208D9216860188342F3D1A1
:1018400018685B6841182160EEE71A005B68002B9E
:1018500001D0A342F9D911685018A0420BD12068D9
:101860000918501811608342E0D118685B6841186C
:1018700011605360DAE7A04202D90C232B60D5E750
:1018800021686018834203D118685B6841182160A1
:1018900063605460CAE7C046A800002070B50F4ED0
:1018A0000D0031680400002902D100F08FF830608B
:1018B0002900200000F08AF8431C0AD00323C51C2D
:1018C0009D43A84207D0291A200000F07FF8431C4E
:1018D00001D101256D42280070BDC046AC0000203A
:1018E000F7B50322CB1C9343083306001F000C2BD3
:1018F00032D20C27B94231D8300000F023F9324DF2
:101900002B681C00002C2ED139003000FFF7C6FFD9
:101910000400431C1ED12C682500002D4AD12368E9
:101920002900E3183000019300F050F8019B834236
:1019300043D123680337FF1A03239F4308370C2F33
:1019400000D20C2739003000FFF7A8FF431C34D029
:101950002368DF19276013E0002BCBDA0C23002566
:1019600033602800FEBD2268D11B20D40B2917D973
:10197000E2192760A34211D12A60636811605360A5
:101980003000250000F0E6F807220B35231D9543B3
:10199000EA1A9D42E5D05B1BA350E2E75A60ECE7F0
:1019A0006268A34201D12A60EAE75A60E8E72300AF
:1019B0006468A7E72C006D68AFE70C233000336044
:1019C00000F0C8F8CDE7C046A8000020002370B59D
:1019D000064D040008002B6000F0D8F8431C03D12A
:1019E0002B68002B00D0236070BDC046A0000020F3
:1019F00070B50C000E25495F00F0B4F8002803DB39
:101A0000636D1B18636570BDA389024A1340A381EF
:101A1000F9E7C046FFEFFFFFF8B51F008B8905000F
:101A20000C001600DB0505D50E23C95E002202233B
:101A300000F074F8A389054A28001340A3813200FE
:101A40000E23E15E3B0000F01FF8F8BDFFEFFFFF43
:101A500070B50C000E25495F00F060F8A389421CA8
:101A600003D1054A1340A38170BD80225201134364
:101A7000A3816065F8E7C046FFEFFFFF10B50E23B6
:101A8000C95E00F015F810BD70B504000800110023
:101A90001A000023054D2B60FFF7B0F8431C03D15B
:101AA0002B68002B00D0236070BDC046A000002032
:101AB000002370B5064D040008002B60FFF7F7F80F
:101AC000431C03D12B68002B00D0236070BDC0469F
:101AD000A0000020002370B5064D0400080011008E
:101AE0002B60FFF7F3F8431C03D12B68002B00D0C9
:101AF000236070BDA0000020002370B5064D0400D7
:101B000008002B60FFF7F2F8431C03D12B68002B71
:101B100000D0236070BDC046A000002070B5040056
:101B2000080011001A000023054D2B60FFF7ECF8A8
:101B3000431C03D12B68002B00D0236070BDC0462E
:101B4000A000002010B50248FFF7EFFD10BDC04611
:101B5000A400002010B50248FFF7E8FD10BDC04604
:101B6000A400002070B50400080011001A00002332
:101B7000054D2B60FFF774F8431C03D12B68002B35
:101B800000D0236070BDC046A0000020044A0300BE
:101B90001068002802D0C318136070470148FAE7A4
:101BA000B0000020B8000020FEE7C046F8B5C046EF
:101BB000F8BC08BC9E467047F8B5C046F8BC08BCE7
:101BC0009E4670472A2A2A20496E697420446F6E07
:101BD000652C205573657220616464206F70657296
:101BE0006174696F6E20636F64652A2A2A000000A1
:101BF0006C636420666F72004E55564F544F4E0012
:101C00000000000004000000080000000C000000BC
:101C100000000000040000000800000020204861CF
:101C200072644661756C74210A0000000048E80186
:101C30000080000000D8B80500960000006CDC02AF
:101C40000000000000000000006CDC021400002016
:101C50000000000000000000000000000000000084
:101C60000000000000000000000000000000000074
:101C70000000000000000000000000000000000064
:101C80000000000000000000000000000000000054
:101C90000000000000000000000000000000000044
:101CA0000000000000000000000000000000000034
:041CB0000000000030
:081CB40054E4FF7F0100000071
:101CBC000100000000D8B8056000000000D8B8058D
:101CCC001400002000000000701C0000901C00009C
:101CDC00501C00000000000000000000000000008C
:101CEC0000000000000000000000000000000000E8
:101CFC0000000000000000000000000000000000D8
:101D0C0000000000000000000000000000000000C7
:101D1C0000000000000000000000000000000000B7
:0C1D2C0000000000E9000000C100000001
:0400000300000D2DBF
:00000001FF
